{
  "contractName": "ResourceManagement",
  "abi": [
    {
      "anonymous": false,
      "inputs": [
        {
          "indexed": true,
          "internalType": "address",
          "name": "user",
          "type": "address"
        },
        {
          "indexed": false,
          "internalType": "string",
          "name": "resource",
          "type": "string"
        },
        {
          "indexed": false,
          "internalType": "uint256",
          "name": "amount",
          "type": "uint256"
        }
      ],
      "name": "ResourceSpent",
      "type": "event"
    },
    {
      "anonymous": false,
      "inputs": [
        {
          "indexed": true,
          "internalType": "address",
          "name": "user",
          "type": "address"
        },
        {
          "indexed": false,
          "internalType": "uint256",
          "name": "buildingId",
          "type": "uint256"
        },
        {
          "indexed": false,
          "internalType": "uint256",
          "name": "newLevel",
          "type": "uint256"
        }
      ],
      "name": "Upgrade",
      "type": "event"
    },
    {
      "inputs": [
        {
          "internalType": "address",
          "name": "",
          "type": "address"
        },
        {
          "internalType": "uint256",
          "name": "",
          "type": "uint256"
        }
      ],
      "name": "buildings",
      "outputs": [
        {
          "internalType": "uint256",
          "name": "level",
          "type": "uint256"
        }
      ],
      "stateMutability": "view",
      "type": "function",
      "constant": true
    },
    {
      "inputs": [
        {
          "internalType": "address",
          "name": "",
          "type": "address"
        },
        {
          "internalType": "string",
          "name": "",
          "type": "string"
        }
      ],
      "name": "capacities",
      "outputs": [
        {
          "internalType": "uint256",
          "name": "",
          "type": "uint256"
        }
      ],
      "stateMutability": "view",
      "type": "function",
      "constant": true
    },
    {
      "inputs": [
        {
          "internalType": "address",
          "name": "",
          "type": "address"
        },
        {
          "internalType": "string",
          "name": "",
          "type": "string"
        }
      ],
      "name": "resources",
      "outputs": [
        {
          "internalType": "uint256",
          "name": "",
          "type": "uint256"
        }
      ],
      "stateMutability": "view",
      "type": "function",
      "constant": true
    },
    {
      "inputs": [
        {
          "internalType": "uint256",
          "name": "buildingId",
          "type": "uint256"
        },
        {
          "internalType": "string[]",
          "name": "resourceNames",
          "type": "string[]"
        },
        {
          "internalType": "uint256[]",
          "name": "resourceCosts",
          "type": "uint256[]"
        }
      ],
      "name": "upgradeBuilding",
      "outputs": [],
      "stateMutability": "nonpayable",
      "type": "function"
    },
    {
      "inputs": [
        {
          "internalType": "string",
          "name": "resourceName",
          "type": "string"
        },
        {
          "internalType": "uint256",
          "name": "amount",
          "type": "uint256"
        }
      ],
      "name": "addResources",
      "outputs": [],
      "stateMutability": "nonpayable",
      "type": "function"
    },
    {
      "inputs": [
        {
          "internalType": "uint256",
          "name": "buildingId",
          "type": "uint256"
        },
        {
          "internalType": "string",
          "name": "resourceName",
          "type": "string"
        },
        {
          "internalType": "uint256",
          "name": "amount",
          "type": "uint256"
        }
      ],
      "name": "setProduction",
      "outputs": [],
      "stateMutability": "nonpayable",
      "type": "function"
    },
    {
      "inputs": [
        {
          "internalType": "uint256",
          "name": "buildingId",
          "type": "uint256"
        },
        {
          "internalType": "string",
          "name": "resourceName",
          "type": "string"
        }
      ],
      "name": "getProduction",
      "outputs": [
        {
          "internalType": "uint256",
          "name": "",
          "type": "uint256"
        }
      ],
      "stateMutability": "view",
      "type": "function",
      "constant": true
    },
    {
      "inputs": [
        {
          "internalType": "string",
          "name": "resourceName",
          "type": "string"
        },
        {
          "internalType": "uint256",
          "name": "amount",
          "type": "uint256"
        }
      ],
      "name": "setCapacity",
      "outputs": [],
      "stateMutability": "nonpayable",
      "type": "function"
    }
  ],
  "bytecode": "0x608060405234801561000f575f80fd5b5061109f8061001d5f395ff3fe608060405234801561000f575f80fd5b5060043610610086575f3560e01c80638a805d35116100595780638a805d351461010e578063b83e15991461012a578063e5707d8d1461015a578063fac396371461018a57610086565b80633447a9811461008a5780634624736d146100a65780636acab278146100c257806377c7bc38146100f2575b5f80fd5b6100a4600480360381019061009f9190610a8b565b6101ba565b005b6100c060048036038101906100bb9190610b13565b610518565b005b6100dc60048036038101906100d79190610bc7565b61057a565b6040516100e99190610c14565b60405180910390f35b61010c60048036038101906101079190610c2d565b61059e565b005b61012860048036038101906101239190610b13565b610612565b005b610144600480360381019061013f9190610c99565b610685565b6040516101519190610c14565b60405180910390f35b610174600480360381019061016f9190610cf3565b6106bd565b6040516101819190610c14565b60405180910390f35b6101a4600480360381019061019f9190610c99565b610731565b6040516101b19190610c14565b60405180910390f35b80518251146101fe576040517f08c379a00000000000000000000000000000000000000000000000000000000081526004016101f590610dcd565b60405180910390fd5b5f5b82518110156104135781818151811061021c5761021b610deb565b5b602002602001015160015f3373ffffffffffffffffffffffffffffffffffffffff1673ffffffffffffffffffffffffffffffffffffffff1681526020019081526020015f2084838151811061027457610273610deb565b5b60200260200101516040516102899190610e84565b90815260200160405180910390205410156102d9576040517f08c379a00000000000000000000000000000000000000000000000000000000081526004016102d090610ee4565b60405180910390fd5b8181815181106102ec576102eb610deb565b5b602002602001015160015f3373ffffffffffffffffffffffffffffffffffffffff1673ffffffffffffffffffffffffffffffffffffffff1681526020019081526020015f2084838151811061034457610343610deb565b5b60200260200101516040516103599190610e84565b90815260200160405180910390205f8282546103759190610f2f565b925050819055503373ffffffffffffffffffffffffffffffffffffffff167fb0fc5e509de5d7dd0ff31052e03922c53eddd3d4a61bf43e98d2a1a4c06a92798483815181106103c7576103c6610deb565b5b60200260200101518484815181106103e2576103e1610deb565b5b60200260200101516040516103f8929190610f9a565b60405180910390a2808061040b90610fc8565b915050610200565b505f803373ffffffffffffffffffffffffffffffffffffffff1673ffffffffffffffffffffffffffffffffffffffff1681526020019081526020015f205f8481526020019081526020015f205f015f81548092919061047190610fc8565b91905055503373ffffffffffffffffffffffffffffffffffffffff167f13ea485b1d8135315e770779887880798ac429f039a7c5ca3ff5f6f99a95b587845f803373ffffffffffffffffffffffffffffffffffffffff1673ffffffffffffffffffffffffffffffffffffffff1681526020019081526020015f205f8781526020019081526020015f205f015460405161050b92919061100f565b60405180910390a2505050565b8060025f3373ffffffffffffffffffffffffffffffffffffffff1673ffffffffffffffffffffffffffffffffffffffff1681526020019081526020015f20836040516105649190610e84565b9081526020016040518091039020819055505050565b5f602052815f5260405f20602052805f5260405f205f9150915050805f0154905081565b805f803373ffffffffffffffffffffffffffffffffffffffff1673ffffffffffffffffffffffffffffffffffffffff1681526020019081526020015f205f8581526020019081526020015f20600101836040516105fb9190610e84565b908152602001604051809103902081905550505050565b8060015f3373ffffffffffffffffffffffffffffffffffffffff1673ffffffffffffffffffffffffffffffffffffffff1681526020019081526020015f208360405161065e9190610e84565b90815260200160405180910390205f82825461067a9190611036565b925050819055505050565b6002602052815f5260405f20818051602081018201805184825260208301602085012081835280955050505050505f91509150505481565b5f805f3373ffffffffffffffffffffffffffffffffffffffff1673ffffffffffffffffffffffffffffffffffffffff1681526020019081526020015f205f8481526020019081526020015f206001018260405161071a9190610e84565b908152602001604051809103902054905092915050565b6001602052815f5260405f20818051602081018201805184825260208301602085012081835280955050505050505f91509150505481565b5f604051905090565b5f80fd5b5f80fd5b5f819050919050565b61078c8161077a565b8114610796575f80fd5b50565b5f813590506107a781610783565b92915050565b5f80fd5b5f601f19601f8301169050919050565b7f4e487b71000000000000000000000000000000000000000000000000000000005f52604160045260245ffd5b6107f7826107b1565b810181811067ffffffffffffffff82111715610816576108156107c1565b5b80604052505050565b5f610828610769565b905061083482826107ee565b919050565b5f67ffffffffffffffff821115610853576108526107c1565b5b602082029050602081019050919050565b5f80fd5b5f80fd5b5f67ffffffffffffffff821115610886576108856107c1565b5b61088f826107b1565b9050602081019050919050565b828183375f83830152505050565b5f6108bc6108b78461086c565b61081f565b9050828152602081018484840111156108d8576108d7610868565b5b6108e384828561089c565b509392505050565b5f82601f8301126108ff576108fe6107ad565b5b813561090f8482602086016108aa565b91505092915050565b5f61092a61092584610839565b61081f565b9050808382526020820190506020840283018581111561094d5761094c610864565b5b835b8181101561099457803567ffffffffffffffff811115610972576109716107ad565b5b80860161097f89826108eb565b8552602085019450505060208101905061094f565b5050509392505050565b5f82601f8301126109b2576109b16107ad565b5b81356109c2848260208601610918565b91505092915050565b5f67ffffffffffffffff8211156109e5576109e46107c1565b5b602082029050602081019050919050565b5f610a08610a03846109cb565b61081f565b90508083825260208201905060208402830185811115610a2b57610a2a610864565b5b835b81811015610a545780610a408882610799565b845260208401935050602081019050610a2d565b5050509392505050565b5f82601f830112610a7257610a716107ad565b5b8135610a828482602086016109f6565b91505092915050565b5f805f60608486031215610aa257610aa1610772565b5b5f610aaf86828701610799565b935050602084013567ffffffffffffffff811115610ad057610acf610776565b5b610adc8682870161099e565b925050604084013567ffffffffffffffff811115610afd57610afc610776565b5b610b0986828701610a5e565b9150509250925092565b5f8060408385031215610b2957610b28610772565b5b5f83013567ffffffffffffffff811115610b4657610b45610776565b5b610b52858286016108eb565b9250506020610b6385828601610799565b9150509250929050565b5f73ffffffffffffffffffffffffffffffffffffffff82169050919050565b5f610b9682610b6d565b9050919050565b610ba681610b8c565b8114610bb0575f80fd5b50565b5f81359050610bc181610b9d565b92915050565b5f8060408385031215610bdd57610bdc610772565b5b5f610bea85828601610bb3565b9250506020610bfb85828601610799565b9150509250929050565b610c0e8161077a565b82525050565b5f602082019050610c275f830184610c05565b92915050565b5f805f60608486031215610c4457610c43610772565b5b5f610c5186828701610799565b935050602084013567ffffffffffffffff811115610c7257610c71610776565b5b610c7e868287016108eb565b9250506040610c8f86828701610799565b9150509250925092565b5f8060408385031215610caf57610cae610772565b5b5f610cbc85828601610bb3565b925050602083013567ffffffffffffffff811115610cdd57610cdc610776565b5b610ce9858286016108eb565b9150509250929050565b5f8060408385031215610d0957610d08610772565b5b5f610d1685828601610799565b925050602083013567ffffffffffffffff811115610d3757610d36610776565b5b610d43858286016108eb565b9150509250929050565b5f82825260208201905092915050565b7f5265736f75726365206e616d657320616e6420636f737473206c656e677468205f8201527f6d69736d61746368000000000000000000000000000000000000000000000000602082015250565b5f610db7602883610d4d565b9150610dc282610d5d565b604082019050919050565b5f6020820190508181035f830152610de481610dab565b9050919050565b7f4e487b71000000000000000000000000000000000000000000000000000000005f52603260045260245ffd5b5f81519050919050565b5f81905092915050565b5f5b83811015610e49578082015181840152602081019050610e2e565b5f8484015250505050565b5f610e5e82610e18565b610e688185610e22565b9350610e78818560208601610e2c565b80840191505092915050565b5f610e8f8284610e54565b915081905092915050565b7f4e6f7420656e6f756768207265736f75726365730000000000000000000000005f82015250565b5f610ece601483610d4d565b9150610ed982610e9a565b602082019050919050565b5f6020820190508181035f830152610efb81610ec2565b9050919050565b7f4e487b71000000000000000000000000000000000000000000000000000000005f52601160045260245ffd5b5f610f398261077a565b9150610f448361077a565b9250828203905081811115610f5c57610f5b610f02565b5b92915050565b5f610f6c82610e18565b610f768185610d4d565b9350610f86818560208601610e2c565b610f8f816107b1565b840191505092915050565b5f6040820190508181035f830152610fb28185610f62565b9050610fc16020830184610c05565b9392505050565b5f610fd28261077a565b91507fffffffffffffffffffffffffffffffffffffffffffffffffffffffffffffffff820361100457611003610f02565b5b600182019050919050565b5f6040820190506110225f830185610c05565b61102f6020830184610c05565b9392505050565b5f6110408261077a565b915061104b8361077a565b925082820190508082111561106357611062610f02565b5b9291505056fea26469706673582212202f5fd384c742605eb43046d34685ff78061b5d540daceaf72d5b4067b574ee4564736f6c63430008150033",
  "immutableReferences": {},
  "source": "// SPDX-License-Identifier: MIT\npragma solidity ^0.8.0;\n\ncontract ResourceManagement {\n    struct Building {\n        uint256 level;\n        mapping(string => uint256) production;\n    }\n\n    mapping(address => mapping(uint256 => Building)) public buildings;\n    mapping(address => mapping(string => uint256)) public resources;\n    mapping(address => mapping(string => uint256)) public capacities;\n\n    event Upgrade(address indexed user, uint256 buildingId, uint256 newLevel);\n    event ResourceSpent(address indexed user, string resource, uint256 amount);\n\n    function upgradeBuilding(uint256 buildingId, string[] memory resourceNames, uint256[] memory resourceCosts) public {\n        require(resourceNames.length == resourceCosts.length, \"Resource names and costs length mismatch\");\n        for (uint256 i = 0; i < resourceNames.length; i++) {\n            require(resources[msg.sender][resourceNames[i]] >= resourceCosts[i], \"Not enough resources\");\n            resources[msg.sender][resourceNames[i]] -= resourceCosts[i];\n            emit ResourceSpent(msg.sender, resourceNames[i], resourceCosts[i]);\n        }\n        buildings[msg.sender][buildingId].level++;\n        emit Upgrade(msg.sender, buildingId, buildings[msg.sender][buildingId].level);\n    }\n\n    function addResources(string memory resourceName, uint256 amount) public {\n        resources[msg.sender][resourceName] += amount;\n    }\n\n    function setProduction(uint256 buildingId, string memory resourceName, uint256 amount) public {\n        buildings[msg.sender][buildingId].production[resourceName] = amount;\n    }\n\n    function getProduction(uint256 buildingId, string memory resourceName) public view returns (uint256) {\n        return buildings[msg.sender][buildingId].production[resourceName];\n    }\n\n    function setCapacity(string memory resourceName, uint256 amount) public {\n        capacities[msg.sender][resourceName] = amount;\n    }\n}\n",
  "sourcePath": "/Users/alex/Sites/cryptotribe/contracts/ResourceManagement.sol",
  "compiler": {
    "name": "solc",
    "version": "0.8.21+commit.d9974bed.Emscripten.clang"
  },
  "schemaVersion": "3.4.16",
  "updatedAt": "2024-05-27T17:48:40.233Z",
  "networkType": "ethereum",
  "devdoc": {
    "kind": "dev",
    "methods": {},
    "version": 1
  },
  "userdoc": {
    "kind": "user",
    "methods": {},
    "version": 1
  }
}