{
  "contractName": "BuildingManagement",
  "abi": [
    {
      "anonymous": false,
      "inputs": [
        {
          "indexed": false,
          "internalType": "uint256",
          "name": "buildingId",
          "type": "uint256"
        },
        {
          "indexed": false,
          "internalType": "address",
          "name": "owner",
          "type": "address"
        },
        {
          "indexed": false,
          "internalType": "uint256",
          "name": "level",
          "type": "uint256"
        },
        {
          "indexed": false,
          "internalType": "string",
          "name": "message",
          "type": "string"
        }
      ],
      "name": "BuildingCreated",
      "type": "event"
    },
    {
      "anonymous": false,
      "inputs": [
        {
          "indexed": false,
          "internalType": "uint256",
          "name": "buildingId",
          "type": "uint256"
        },
        {
          "indexed": false,
          "internalType": "uint256",
          "name": "newLevel",
          "type": "uint256"
        },
        {
          "indexed": false,
          "internalType": "address",
          "name": "owner",
          "type": "address"
        },
        {
          "indexed": false,
          "internalType": "string",
          "name": "message",
          "type": "string"
        }
      ],
      "name": "BuildingUpgraded",
      "type": "event"
    },
    {
      "inputs": [
        {
          "internalType": "uint256",
          "name": "",
          "type": "uint256"
        }
      ],
      "name": "buildings",
      "outputs": [
        {
          "internalType": "uint256",
          "name": "level",
          "type": "uint256"
        },
        {
          "internalType": "address",
          "name": "owner",
          "type": "address"
        },
        {
          "internalType": "uint256",
          "name": "buildTime",
          "type": "uint256"
        }
      ],
      "stateMutability": "view",
      "type": "function",
      "constant": true
    },
    {
      "inputs": [
        {
          "internalType": "uint256",
          "name": "buildingId",
          "type": "uint256"
        },
        {
          "internalType": "string",
          "name": "message",
          "type": "string"
        }
      ],
      "name": "buildOrUpgrade",
      "outputs": [],
      "stateMutability": "nonpayable",
      "type": "function"
    },
    {
      "inputs": [
        {
          "internalType": "uint256",
          "name": "buildingId",
          "type": "uint256"
        }
      ],
      "name": "getBuildingLevel",
      "outputs": [
        {
          "internalType": "uint256",
          "name": "",
          "type": "uint256"
        }
      ],
      "stateMutability": "view",
      "type": "function",
      "constant": true
    },
    {
      "inputs": [
        {
          "internalType": "uint256",
          "name": "buildingId",
          "type": "uint256"
        }
      ],
      "name": "getBuildingOwner",
      "outputs": [
        {
          "internalType": "address",
          "name": "",
          "type": "address"
        }
      ],
      "stateMutability": "view",
      "type": "function",
      "constant": true
    }
  ],
  "bytecode": "0x608060405234801561000f575f80fd5b5061087e8061001d5f395ff3fe608060405234801561000f575f80fd5b506004361061004a575f3560e01c806313c12fa31461004e5780634c96a0621461006a578063b2e254151461009c578063fa6fae72146100cc575b5f80fd5b61006860048036038101906100639190610512565b6100fc565b005b610084600480360381019061007f919061056c565b6102f8565b604051610093939291906105e5565b60405180910390f35b6100b660048036038101906100b1919061056c565b61033c565b6040516100c3919061061a565b60405180910390f35b6100e660048036038101906100e1919061056c565b610357565b6040516100f39190610633565b60405180910390f35b5f805f8481526020019081526020015f2090505f73ffffffffffffffffffffffffffffffffffffffff16816001015f9054906101000a900473ffffffffffffffffffffffffffffffffffffffff1673ffffffffffffffffffffffffffffffffffffffff16036101fe5733816001015f6101000a81548173ffffffffffffffffffffffffffffffffffffffff021916908373ffffffffffffffffffffffffffffffffffffffff1602179055506001815f01819055504281600201819055507fab5970e85f7ef90ff8f75454c8f11e92c3aed609fb53e57f2303b711630c8ced8333835f0154856040516101f194939291906106c6565b60405180910390a16102f3565b3373ffffffffffffffffffffffffffffffffffffffff16816001015f9054906101000a900473ffffffffffffffffffffffffffffffffffffffff1673ffffffffffffffffffffffffffffffffffffffff161461028f576040517f08c379a000000000000000000000000000000000000000000000000000000000815260040161028690610780565b60405180910390fd5b6001815f015f8282546102a291906107cb565b925050819055504281600201819055507f5d204489783d4cf6c07d10224c75011d3223f6fe712dddbd58367241c79fbae283825f015433856040516102ea94939291906107fe565b60405180910390a15b505050565b5f602052805f5260405f205f91509050805f015490806001015f9054906101000a900473ffffffffffffffffffffffffffffffffffffffff16908060020154905083565b5f805f8381526020019081526020015f205f01549050919050565b5f805f8381526020019081526020015f206001015f9054906101000a900473ffffffffffffffffffffffffffffffffffffffff169050919050565b5f604051905090565b5f80fd5b5f80fd5b5f819050919050565b6103b5816103a3565b81146103bf575f80fd5b50565b5f813590506103d0816103ac565b92915050565b5f80fd5b5f80fd5b5f601f19601f8301169050919050565b7f4e487b71000000000000000000000000000000000000000000000000000000005f52604160045260245ffd5b610424826103de565b810181811067ffffffffffffffff82111715610443576104426103ee565b5b80604052505050565b5f610455610392565b9050610461828261041b565b919050565b5f67ffffffffffffffff8211156104805761047f6103ee565b5b610489826103de565b9050602081019050919050565b828183375f83830152505050565b5f6104b66104b184610466565b61044c565b9050828152602081018484840111156104d2576104d16103da565b5b6104dd848285610496565b509392505050565b5f82601f8301126104f9576104f86103d6565b5b81356105098482602086016104a4565b91505092915050565b5f80604083850312156105285761052761039b565b5b5f610535858286016103c2565b925050602083013567ffffffffffffffff8111156105565761055561039f565b5b610562858286016104e5565b9150509250929050565b5f602082840312156105815761058061039b565b5b5f61058e848285016103c2565b91505092915050565b6105a0816103a3565b82525050565b5f73ffffffffffffffffffffffffffffffffffffffff82169050919050565b5f6105cf826105a6565b9050919050565b6105df816105c5565b82525050565b5f6060820190506105f85f830186610597565b61060560208301856105d6565b6106126040830184610597565b949350505050565b5f60208201905061062d5f830184610597565b92915050565b5f6020820190506106465f8301846105d6565b92915050565b5f81519050919050565b5f82825260208201905092915050565b5f5b83811015610683578082015181840152602081019050610668565b5f8484015250505050565b5f6106988261064c565b6106a28185610656565b93506106b2818560208601610666565b6106bb816103de565b840191505092915050565b5f6080820190506106d95f830187610597565b6106e660208301866105d6565b6106f36040830185610597565b8181036060830152610705818461068e565b905095945050505050565b7f596f7520617265206e6f7420746865206f776e6572206f6620746869732062755f8201527f696c64696e672e00000000000000000000000000000000000000000000000000602082015250565b5f61076a602783610656565b915061077582610710565b604082019050919050565b5f6020820190508181035f8301526107978161075e565b9050919050565b7f4e487b71000000000000000000000000000000000000000000000000000000005f52601160045260245ffd5b5f6107d5826103a3565b91506107e0836103a3565b92508282019050808211156107f8576107f761079e565b5b92915050565b5f6080820190506108115f830187610597565b61081e6020830186610597565b61082b60408301856105d6565b818103606083015261083d818461068e565b90509594505050505056fea2646970667358221220c6c0fb9de2cb6a031b526909697b335cbe5cd70efe4ffff87f898ad285cc2b8264736f6c63430008150033",
  "immutableReferences": {},
  "source": "// SPDX-License-Identifier: MIT\npragma solidity ^0.8.0;\n\ncontract BuildingManagement {\n    struct Building {\n        uint256 level;\n        address owner;\n        uint256 buildTime;\n    }\n\n    mapping(uint256 => Building) public buildings;\n\n    event BuildingUpgraded(uint256 buildingId, uint256 newLevel, address owner, string message);\n    event BuildingCreated(uint256 buildingId, address owner, uint256 level, string message);\n\n    function buildOrUpgrade(uint256 buildingId, string memory message) public {\n        Building storage building = buildings[buildingId];\n\n        if (building.owner == address(0)) {\n            building.owner = msg.sender;\n            building.level = 1;\n            building.buildTime = block.timestamp;\n\n            emit BuildingCreated(buildingId, msg.sender, building.level, message);\n        } else {\n            require(building.owner == msg.sender, \"You are not the owner of this building.\");\n            building.level += 1;\n            building.buildTime = block.timestamp;\n\n            emit BuildingUpgraded(buildingId, building.level, msg.sender, message);\n        }\n    }\n\n    function getBuildingLevel(uint256 buildingId) public view returns (uint256) {\n        return buildings[buildingId].level;\n    }\n\n    function getBuildingOwner(uint256 buildingId) public view returns (address) {\n        return buildings[buildingId].owner;\n    }\n}\n",
  "sourcePath": "/workspaces/cryptotribe/contracts/BuildingManagement.sol",
  "compiler": {
    "name": "solc",
    "version": "0.8.21+commit.d9974bed.Emscripten.clang"
  },
  "schemaVersion": "3.4.16",
  "updatedAt": "2024-08-12T09:13:02.719Z",
  "networkType": "ethereum",
  "devdoc": {
    "kind": "dev",
    "methods": {},
    "version": 1
  },
  "userdoc": {
    "kind": "user",
    "methods": {},
    "version": 1
  }
}